{
    "contractName": "reMain",
    "abi": [
        {
            "constant": false,
            "inputs": [
                {
                    "name": "bank_price",
                    "type": "string"
                }
            ],
            "name": "loan_cal",
            "outputs": [
                {
                    "name": "",
                    "type": "string"
                }
            ],
            "payable": false,
            "stateMutability": "nonpayable",
            "type": "function"
        },
        {
            "constant": true,
            "inputs": [],
            "name": "status",
            "outputs": [
                {
                    "name": "",
                    "type": "uint8"
                }
            ],
            "payable": false,
            "stateMutability": "view",
            "type": "function"
        },
        {
            "constant": false,
            "inputs": [
                {
                    "name": "bank_price",
                    "type": "string"
                }
            ],
            "name": "compareloan_cal",
            "outputs": [
                {
                    "name": "",
                    "type": "bool"
                }
            ],
            "payable": false,
            "stateMutability": "nonpayable",
            "type": "function"
        },
        {
            "constant": true,
            "inputs": [],
            "name": "getData",
            "outputs": [
                {
                    "name": "",
                    "type": "string"
                },
                {
                    "name": "",
                    "type": "string"
                },
                {
                    "name": "",
                    "type": "string"
                },
                {
                    "name": "",
                    "type": "string"
                },
                {
                    "name": "",
                    "type": "string"
                }
            ],
            "payable": false,
            "stateMutability": "view",
            "type": "function"
        },
        {
            "constant": false,
            "inputs": [
                {
                    "name": "ALV_price",
                    "type": "string"
                },
                {
                    "name": "CLV_price",
                    "type": "string"
                },
                {
                    "name": "area",
                    "type": "string"
                }
            ],
            "name": "LVIT_cal",
            "outputs": [
                {
                    "name": "",
                    "type": "string"
                }
            ],
            "payable": false,
            "stateMutability": "nonpayable",
            "type": "function"
        },
        {
            "constant": false,
            "inputs": [
                {
                    "name": "role",
                    "type": "string"
                }
            ],
            "name": "settingRole",
            "outputs": [],
            "payable": false,
            "stateMutability": "nonpayable",
            "type": "function"
        },
        {
            "constant": false,
            "inputs": [
                {
                    "name": "name",
                    "type": "string"
                }
            ],
            "name": "get_HPV",
            "outputs": [
                {
                    "name": "",
                    "type": "string"
                }
            ],
            "payable": false,
            "stateMutability": "nonpayable",
            "type": "function"
        },
        {
            "constant": true,
            "inputs": [],
            "name": "getRoles",
            "outputs": [
                {
                    "name": "",
                    "type": "address"
                },
                {
                    "name": "",
                    "type": "address"
                },
                {
                    "name": "",
                    "type": "address"
                }
            ],
            "payable": false,
            "stateMutability": "view",
            "type": "function"
        },
        {
            "constant": false,
            "inputs": [
                {
                    "name": "gov_price",
                    "type": "string"
                }
            ],
            "name": "compareHPV_price",
            "outputs": [
                {
                    "name": "",
                    "type": "bool"
                }
            ],
            "payable": false,
            "stateMutability": "nonpayable",
            "type": "function"
        },
        {
            "constant": false,
            "inputs": [],
            "name": "check",
            "outputs": [
                {
                    "name": "",
                    "type": "bool"
                }
            ],
            "payable": false,
            "stateMutability": "nonpayable",
            "type": "function"
        },
        {
            "constant": false,
            "inputs": [
                {
                    "name": "gov_price",
                    "type": "string"
                }
            ],
            "name": "compareDT_cal",
            "outputs": [
                {
                    "name": "",
                    "type": "bool"
                }
            ],
            "payable": false,
            "stateMutability": "nonpayable",
            "type": "function"
        },
        {
            "constant": false,
            "inputs": [
                {
                    "name": "addrss",
                    "type": "string"
                }
            ],
            "name": "get_CLV_ALV",
            "outputs": [
                {
                    "name": "",
                    "type": "string"
                },
                {
                    "name": "",
                    "type": "string"
                }
            ],
            "payable": false,
            "stateMutability": "nonpayable",
            "type": "function"
        },
        {
            "constant": false,
            "inputs": [
                {
                    "name": "HPV_price",
                    "type": "string"
                }
            ],
            "name": "DT_cal",
            "outputs": [
                {
                    "name": "",
                    "type": "string"
                }
            ],
            "payable": false,
            "stateMutability": "nonpayable",
            "type": "function"
        },
        {
            "constant": false,
            "inputs": [
                {
                    "name": "gov_price",
                    "type": "string"
                }
            ],
            "name": "compareLVIT_cal",
            "outputs": [
                {
                    "name": "",
                    "type": "bool"
                }
            ],
            "payable": false,
            "stateMutability": "nonpayable",
            "type": "function"
        },
        {
            "inputs": [
                {
                    "name": "buyerName",
                    "type": "string"
                },
                {
                    "name": "sellerName",
                    "type": "string"
                },
                {
                    "name": "area",
                    "type": "string"
                },
                {
                    "name": "buildPattern",
                    "type": "string"
                },
                {
                    "name": "phone",
                    "type": "string"
                },
                {
                    "name": "houseNumber",
                    "type": "string"
                },
                {
                    "name": "totalPrice",
                    "type": "string"
                }
            ],
            "payable": false,
            "stateMutability": "nonpayable",
            "type": "constructor"
        },
        {
            "anonymous": false,
            "inputs": [
                {
                    "indexed": false,
                    "name": "status",
                    "type": "uint8"
                }
            ],
            "name": "statusEvt",
            "type": "event"
        }
    ],
    "bytecode": "60806040523480156200001157600080fd5b5060405162001b8238038062001b828339810160409081528151602080840151928401516060850151608086015160a087015160c08801519588018051909897880197948501969385019592850194918201939091019162000079916003918a0190620005fc565b5085516200008f906004906020890190620005fc565b508451620000a5906005906020880190620005fc565b508351620000bb906006906020870190620005fc565b508251620000d1906007906020860190620005fc565b508151620000e7906008906020850190620005fc565b508051620000fd906009906020840190620005fc565b506200011286640100000000620004ad810204565b80516200012891600a91602090910190620005fc565b50620001d46003600701805460408051602060026001851615610100026000190190941693909304601f81018490048402820184019092528181529291830182828015620001ba5780601f106200018e57610100808354040283529160200191620001ba565b820191906000526020600020905b8154815290600101906020018083116200019c57829003601f168201915b5050505050620004e5640100000000026401000000009004565b8051620001ea91600b91602090910190620005fc565b50620001ff826401000000006200051d810204565b8051600c906000906200021a90600d906020860190620005fc565b505082516200022f91906020850190620005fc565b5050600d805460408051602060026001851615610100026000190190941693909304601f81018490048402820184019092528181526200037794509291830182828015620002c15780601f106200029557610100808354040283529160200191620002c1565b820191906000526020600020905b815481529060010190602001808311620002a357829003601f168201915b506003935060099250620002d3915050565b01805460408051602060026001851615610100026000190190941693909304601f810184900484028201840190925281815292918301828280156200035c5780601f1062000330576101008083540402835291602001916200035c565b820191906000526020600020905b8154815290600101906020018083116200033e57829003601f168201915b50505050508762000589640100000000026401000000009004565b80516200038d91600e91602090910190620005fc565b50620004396003600601805460408051602060026001851615610100026000190190941693909304601f810184900484028201840190925281815292918301828280156200041f5780601f10620003f3576101008083540402835291602001916200041f565b820191906000526020600020905b8154815290600101906020018083116200040157829003601f168201915b5050505050620005c4640100000000026401000000009004565b80516200044f91600f91602090910190620005fc565b5060008054600160a060020a03191633600160a060020a0316179055604080516001815290517fdeead14f7eb5d694355bc020a61c115745ff608401710b784297c89f4319be07916020908290030190a150505050505050620006a1565b5060408051808201909152600781527f3130303030303000000000000000000000000000000000000000000000000000602082015290565b5060408051808201909152600581527f3130303030000000000000000000000000000000000000000000000000000000602082015290565b50604080518082018252600681527f32373833343700000000000000000000000000000000000000000000000000006020808301919091528251808401909352600783527f31303138313832000000000000000000000000000000000000000000000000009083015291565b60408051808201909152600781527f313233343536370000000000000000000000000000000000000000000000000060208201529392505050565b5060408051808201909152600781527f3530303030303000000000000000000000000000000000000000000000000000602082015290565b828054600181600116156101000203166002900490600052602060002090601f016020900481019282601f106200063f57805160ff19168380011785556200066f565b828001600101855582156200066f579182015b828111156200066f57825182559160200191906001019062000652565b506200067d92915062000681565b5090565b6200069e91905b808211156200067d576000815560010162000688565b90565b6114d180620006b16000396000f3006080604052600436106100cf5763ffffffff7c010000000000000000000000000000000000000000000000000000000060003504166317f7860b81146100d4578063200d2ed2146101a25780632307430e146101db5780633bc5de30146102485780635b064c071461046d57806363d02ebe146105425780636524e9b31461059d57806371061398146105f6578063876dae7314610636578063919840ad1461068f578063b2509cee146106a4578063b455c445146106fd578063b9332f0a14610834578063da99b4f01461088d575b600080fd5b3480156100e057600080fd5b506040805160206004803580820135601f810184900484028501840190955284845261012d9436949293602493928401919081908401838280828437509497506108e69650505050505050565b6040805160208082528351818301528351919283929083019185019080838360005b8381101561016757818101518382015260200161014f565b50505050905090810190601f1680156101945780820380516001836020036101000a031916815260200191505b509250505060405180910390f35b3480156101ae57600080fd5b506101b7610920565b604051808260028111156101c757fe5b60ff16815260200191505060405180910390f35b3480156101e757600080fd5b506040805160206004803580820135601f81018490048402850184019095528484526102349436949293602493928401919081908401838280828437509497506109299650505050505050565b604080519115158252519081900360200190f35b34801561025457600080fd5b5061025d610a72565b60405180806020018060200180602001806020018060200186810386528b818151815260200191508051906020019080838360005b838110156102aa578181015183820152602001610292565b50505050905090810190601f1680156102d75780820380516001836020036101000a031916815260200191505b5086810385528a5181528a516020918201918c019080838360005b8381101561030a5781810151838201526020016102f2565b50505050905090810190601f1680156103375780820380516001836020036101000a031916815260200191505b5086810384528951815289516020918201918b019080838360005b8381101561036a578181015183820152602001610352565b50505050905090810190601f1680156103975780820380516001836020036101000a031916815260200191505b5086810383528851815288516020918201918a019080838360005b838110156103ca5781810151838201526020016103b2565b50505050905090810190601f1680156103f75780820380516001836020036101000a031916815260200191505b50868103825287518152875160209182019189019080838360005b8381101561042a578181015183820152602001610412565b50505050905090810190601f1680156104575780820380516001836020036101000a031916815260200191505b509a505050505050505050505060405180910390f35b34801561047957600080fd5b506040805160206004803580820135601f810184900484028501840190955284845261012d94369492936024939284019190819084018382808284375050604080516020601f89358b018035918201839004830284018301909452808352979a99988101979196509182019450925082915084018382808284375050604080516020601f89358b018035918201839004830284018301909452808352979a999881019791965091820194509250829150840183828082843750949750610d609650505050505050565b34801561054e57600080fd5b506040805160206004803580820135601f810184900484028501840190955284845261059b943694929360249392840191908190840183828082843750949750610d9b9650505050505050565b005b3480156105a957600080fd5b506040805160206004803580820135601f810184900484028501840190955284845261012d943694929360249392840191908190840183828082843750949750610f229650505050505050565b34801561060257600080fd5b5061060b610f5a565b60408051600160a060020a039485168152928416602084015292168183015290519081900360600190f35b34801561064257600080fd5b506040805160206004803580820135601f8101849004840285018401909552848452610234943694929360249392840191908190840183828082843750949750610f779650505050505050565b34801561069b57600080fd5b506102346110a4565b3480156106b057600080fd5b506040805160206004803580820135601f81018490048402850184019095528484526102349436949293602493928401919081908401838280828437509497506111999650505050505050565b34801561070957600080fd5b506040805160206004803580820135601f81018490048402850184019095528484526107569436949293602493928401919081908401838280828437509497506112cc9650505050505050565b604051808060200180602001838103835285818151815260200191508051906020019080838360005b8381101561079757818101518382015260200161077f565b50505050905090810190601f1680156107c45780820380516001836020036101000a031916815260200191505b50838103825284518152845160209182019186019080838360005b838110156107f75781810151838201526020016107df565b50505050905090810190601f1680156108245780820380516001836020036101000a031916815260200191505b5094505050505060405180910390f35b34801561084057600080fd5b506040805160206004803580820135601f810184900484028501840190955284845261012d9436949293602493928401919081908401838280828437509497506113389650505050505050565b34801561089957600080fd5b506040805160206004803580820135601f81018490048402850184019095528484526102349436949293602493928401919081908401838280828437509497506113709650505050505050565b60408051808201909152600781527f353030303030300000000000000000000000000000000000000000000000000060208201525b919050565b60105460ff1681565b60025460009033600160a060020a0390811691161461094757600080fd5b816040518082805190602001908083835b602083106109775780518252601f199092019160209182019101610958565b5181516020939093036101000a60001901801990911692169190911790526040519201829003909120925060039150600c9050016040518082805460018160011615610100020316600290048015610a065780601f106109e4576101008083540402835291820191610a06565b820191906000526020600020905b8154815290600101906020018083116109f2575b50509150506040518091039020600019161415610a6a576002805477ff0000000000000000000000000000000000000000000000191677010000000000000000000000000000000000000000000000179055610a606110a4565b506001905061091b565b50600061091b565b600a805460408051602060026001851615610100026000190190941693909304601f8101849004840282018401909252818152606093849384938493849392600b92600c92600d92600e928791830182828015610b105780601f10610ae557610100808354040283529160200191610b10565b820191906000526020600020905b815481529060010190602001808311610af357829003601f168201915b5050875460408051602060026001851615610100026000190190941693909304601f8101849004840282018401909252818152959a5089945092508401905082828015610b9e5780601f10610b7357610100808354040283529160200191610b9e565b820191906000526020600020905b815481529060010190602001808311610b8157829003601f168201915b5050865460408051602060026001851615610100026000190190941693909304601f810184900484028201840190925281815295995088945092508401905082828015610c2c5780601f10610c0157610100808354040283529160200191610c2c565b820191906000526020600020905b815481529060010190602001808311610c0f57829003601f168201915b5050855460408051602060026001851615610100026000190190941693909304601f810184900484028201840190925281815295985087945092508401905082828015610cba5780601f10610c8f57610100808354040283529160200191610cba565b820191906000526020600020905b815481529060010190602001808311610c9d57829003601f168201915b5050845460408051602060026001851615610100026000190190941693909304601f810184900484028201840190925281815295975086945092508401905082828015610d485780601f10610d1d57610100808354040283529160200191610d48565b820191906000526020600020905b815481529060010190602001808311610d2b57829003601f168201915b50505050509050945094509450945094509091929394565b60408051808201909152600781527f313233343536370000000000000000000000000000000000000000000000000060208201529392505050565b604080517f62616e6b0000000000000000000000000000000000000000000000000000000081529051908190036004018120825190918391819060208401908083835b60208310610dfd5780518252601f199092019160209182019101610dde565b6001836020036101000a0380198251168184511680821785525050505050509050019150506040518091039020600019161415610e5d576002805473ffffffffffffffffffffffffffffffffffffffff191633600160a060020a03161790555b604080517f676f76656e6d656e74000000000000000000000000000000000000000000000081529051908190036009018120825190918391819060208401908083835b60208310610ebf5780518252601f199092019160209182019101610ea0565b6001836020036101000a0380198251168184511680821785525050505050509050019150506040518091039020600019161415610f1f576001805473ffffffffffffffffffffffffffffffffffffffff191633600160a060020a03161790555b50565b5060408051808201909152600781527f3130303030303000000000000000000000000000000000000000000000000000602082015290565b600054600154600254600160a060020a0392831693918316921690565b60015460009033600160a060020a03908116911614610f9557600080fd5b816040518082805190602001908083835b60208310610fc55780518252601f199092019160209182019101610fa6565b5181516020939093036101000a60001901801990911692169190911790526040519201829003909120925060039150600790500160405180828054600181600116156101000203166002900480156110545780601f10611032576101008083540402835291820191611054565b820191906000526020600020905b815481529060010190602001808311611040575b50509150506040518091039020600019161415610a6a576002805474ff0000000000000000000000000000000000000000191674010000000000000000000000000000000000000000179055610a605b6002546000907501000000000000000000000000000000000000000000900460ff16151560011480156110f6575060025474010000000000000000000000000000000000000000900460ff1615156001145b8015611124575060025477010000000000000000000000000000000000000000000000900460ff1615156001145b80156111515750600254760100000000000000000000000000000000000000000000900460ff1615156001145b1561119257604080516002815290517fdeead14f7eb5d694355bc020a61c115745ff608401710b784297c89f4319be079181900360200190a1506001611196565b5060005b90565b60015460009033600160a060020a039081169116146111b757600080fd5b816040518082805190602001908083835b602083106111e75780518252601f1990920191602091820191016111c8565b5181516020939093036101000a60001901801990911692169190911790526040519201829003909120925060039150600890500160405180828054600181600116156101000203166002900480156112765780601f10611254576101008083540402835291820191611276565b820191906000526020600020905b815481529060010190602001808311611262575b50509150506040518091039020600019161415610a6a576002805475ff00000000000000000000000000000000000000000019167501000000000000000000000000000000000000000000179055610a606110a4565b50604080518082018252600681527f32373833343700000000000000000000000000000000000000000000000000006020808301919091528251808401909352600783527f31303138313832000000000000000000000000000000000000000000000000009083015291565b5060408051808201909152600581527f3130303030000000000000000000000000000000000000000000000000000000602082015290565b60015460009033600160a060020a0390811691161461138e57600080fd5b816040518082805190602001908083835b602083106113be5780518252601f19909201916020918201910161139f565b5181516020939093036101000a60001901801990911692169190911790526040519201829003909120925060039150600b905001604051808280546001816001161561010002031660029004801561144d5780601f1061142b57610100808354040283529182019161144d565b820191906000526020600020905b815481529060010190602001808311611439575b50509150506040518091039020600019161415610a6a576002805476ff000000000000000000000000000000000000000000001916760100000000000000000000000000000000000000000000179055610a606110a45600a165627a7a723058201c065742c195bd36149534668f9816dea9e21fcb3a4e302376293956eaa0b6180029",
    "sourcePath": "c:/Users/ASUSPRO/Documents/GitHub/solidity_rs/rsMain.sol",
    "compiler": {
        "name": "solc",
        "version": "0.4.23+commit.124ca40d"
    },
    "functionHashes": {
        "DT_cal(string)": "b9332f0a",
        "LVIT_cal(string,string,string)": "5b064c07",
        "check()": "919840ad",
        "compareDT_cal(string)": "b2509cee",
        "compareHPV_price(string)": "876dae73",
        "compareLVIT_cal(string)": "da99b4f0",
        "compareloan_cal(string)": "2307430e",
        "getData()": "3bc5de30",
        "getRoles()": "71061398",
        "get_CLV_ALV(string)": "b455c445",
        "get_HPV(string)": "6524e9b3",
        "loan_cal(string)": "17f7860b",
        "settingRole(string)": "63d02ebe",
        "status()": "200d2ed2"
    },
    "gasEstimates": {
        "creation": {
            "codeDepositCost": "1065800",
            "executionCost": "infinite",
            "totalCost": "infinite"
        },
        "external": {
            "DT_cal(string)": "infinite",
            "LVIT_cal(string,string,string)": "infinite",
            "check()": "2472",
            "compareDT_cal(string)": "infinite",
            "compareHPV_price(string)": "infinite",
            "compareLVIT_cal(string)": "infinite",
            "compareloan_cal(string)": "infinite",
            "getData()": "infinite",
            "getRoles()": "1169",
            "get_CLV_ALV(string)": "infinite",
            "get_HPV(string)": "infinite",
            "loan_cal(string)": "infinite",
            "settingRole(string)": "infinite",
            "status()": "451"
        }
    }
}